{
	".states/taskone/binarySearch.sol": {
		"BinarySearch": {
			"abi": [
				{
					"inputs": [
						{
							"internalType": "uint256[]",
							"name": "arr",
							"type": "uint256[]"
						},
						{
							"internalType": "uint256",
							"name": "target",
							"type": "uint256"
						}
					],
					"name": "binarySearch",
					"outputs": [
						{
							"internalType": "uint256",
							"name": "",
							"type": "uint256"
						}
					],
					"stateMutability": "pure",
					"type": "function"
				},
				{
					"inputs": [
						{
							"internalType": "uint256[]",
							"name": "arr",
							"type": "uint256[]"
						},
						{
							"internalType": "uint256",
							"name": "target",
							"type": "uint256"
						}
					],
					"name": "binarySearcht",
					"outputs": [
						{
							"internalType": "uint256",
							"name": "",
							"type": "uint256"
						}
					],
					"stateMutability": "pure",
					"type": "function"
				}
			],
			"devdoc": {
				"kind": "dev",
				"methods": {},
				"version": 1
			},
			"evm": {
				"assembly": "    /* \".states/taskone/binarySearch.sol\":60:1262  contract BinarySearch {... */\n  mstore(0x40, 0x80)\n  callvalue\n  dup1\n  iszero\n  tag_1\n  jumpi\n  revert(0x00, 0x00)\ntag_1:\n  pop\n  dataSize(sub_0)\n  dup1\n  dataOffset(sub_0)\n  0x00\n  codecopy\n  0x00\n  return\nstop\n\nsub_0: assembly {\n        /* \".states/taskone/binarySearch.sol\":60:1262  contract BinarySearch {... */\n      mstore(0x40, 0x80)\n      callvalue\n      dup1\n      iszero\n      tag_1\n      jumpi\n      revert(0x00, 0x00)\n    tag_1:\n      pop\n      jumpi(tag_2, lt(calldatasize, 0x04))\n      shr(0xe0, calldataload(0x00))\n      dup1\n      0xb12601da\n      eq\n      tag_3\n      jumpi\n      dup1\n      0xdd0e4a1e\n      eq\n      tag_4\n      jumpi\n    tag_2:\n      revert(0x00, 0x00)\n        /* \".states/taskone/binarySearch.sol\":93:716  function binarySearch(uint[] memory arr, uint target) public pure returns (uint) {... */\n    tag_3:\n      tag_5\n      0x04\n      dup1\n      calldatasize\n      sub\n      dup2\n      add\n      swap1\n      tag_6\n      swap2\n      swap1\n      tag_7\n      jump\t// in\n    tag_6:\n      tag_8\n      jump\t// in\n    tag_5:\n      mload(0x40)\n      tag_9\n      swap2\n      swap1\n      tag_10\n      jump\t// in\n    tag_9:\n      mload(0x40)\n      dup1\n      swap2\n      sub\n      swap1\n      return\n        /* \".states/taskone/binarySearch.sol\":724:1259  function binarySearcht(uint[] memory arr, uint target) public pure returns (uint) {... */\n    tag_4:\n      tag_11\n      0x04\n      dup1\n      calldatasize\n      sub\n      dup2\n      add\n      swap1\n      tag_12\n      swap2\n      swap1\n      tag_7\n      jump\t// in\n    tag_12:\n      tag_13\n      jump\t// in\n    tag_11:\n      mload(0x40)\n      tag_14\n      swap2\n      swap1\n      tag_10\n      jump\t// in\n    tag_14:\n      mload(0x40)\n      dup1\n      swap2\n      sub\n      swap1\n      return\n        /* \".states/taskone/binarySearch.sol\":93:716  function binarySearch(uint[] memory arr, uint target) public pure returns (uint) {... */\n    tag_8:\n        /* \".states/taskone/binarySearch.sol\":168:172  uint */\n      0x00\n        /* \".states/taskone/binarySearch.sol\":203:204  0 */\n      0x00\n        /* \".states/taskone/binarySearch.sol\":189:192  arr */\n      dup4\n        /* \".states/taskone/binarySearch.sol\":189:199  arr.length */\n      mload\n        /* \".states/taskone/binarySearch.sol\":189:204  arr.length == 0 */\n      sub\n        /* \".states/taskone/binarySearch.sol\":185:255  if (arr.length == 0) {... */\n      tag_16\n      jumpi\n        /* \".states/taskone/binarySearch.sol\":228:242  type(uint).max */\n      0xffffffffffffffffffffffffffffffffffffffffffffffffffffffffffffffff\n        /* \".states/taskone/binarySearch.sol\":221:242  return type(uint).max */\n      swap1\n      pop\n      jump(tag_15)\n        /* \".states/taskone/binarySearch.sol\":185:255  if (arr.length == 0) {... */\n    tag_16:\n        /* \".states/taskone/binarySearch.sol\":267:276  uint left */\n      0x00\n        /* \".states/taskone/binarySearch.sol\":279:280  0 */\n      0x00\n        /* \".states/taskone/binarySearch.sol\":267:280  uint left = 0 */\n      swap1\n      pop\n        /* \".states/taskone/binarySearch.sol\":291:301  uint right */\n      0x00\n        /* \".states/taskone/binarySearch.sol\":317:318  1 */\n      0x01\n        /* \".states/taskone/binarySearch.sol\":304:307  arr */\n      dup6\n        /* \".states/taskone/binarySearch.sol\":304:314  arr.length */\n      mload\n        /* \".states/taskone/binarySearch.sol\":304:318  arr.length - 1 */\n      tag_17\n      swap2\n      swap1\n      tag_18\n      jump\t// in\n    tag_17:\n        /* \".states/taskone/binarySearch.sol\":291:318  uint right = arr.length - 1 */\n      swap1\n      pop\n        /* \".states/taskone/binarySearch.sol\":331:674  while (left <= right) {... */\n    tag_19:\n        /* \".states/taskone/binarySearch.sol\":346:351  right */\n      dup1\n        /* \".states/taskone/binarySearch.sol\":338:342  left */\n      dup3\n        /* \".states/taskone/binarySearch.sol\":338:351  left <= right */\n      gt\n        /* \".states/taskone/binarySearch.sol\":331:674  while (left <= right) {... */\n      tag_20\n      jumpi\n        /* \".states/taskone/binarySearch.sol\":368:376  uint mid */\n      0x00\n        /* \".states/taskone/binarySearch.sol\":403:404  2 */\n      0x02\n        /* \".states/taskone/binarySearch.sol\":395:399  left */\n      dup4\n        /* \".states/taskone/binarySearch.sol\":387:392  right */\n      dup4\n        /* \".states/taskone/binarySearch.sol\":387:399  right - left */\n      tag_21\n      swap2\n      swap1\n      tag_18\n      jump\t// in\n    tag_21:\n        /* \".states/taskone/binarySearch.sol\":386:404  (right - left) / 2 */\n      tag_22\n      swap2\n      swap1\n      tag_23\n      jump\t// in\n    tag_22:\n        /* \".states/taskone/binarySearch.sol\":379:383  left */\n      dup4\n        /* \".states/taskone/binarySearch.sol\":379:404  left + (right - left) / 2 */\n      tag_24\n      swap2\n      swap1\n      tag_25\n      jump\t// in\n    tag_24:\n        /* \".states/taskone/binarySearch.sol\":368:404  uint mid = left + (right - left) / 2 */\n      swap1\n      pop\n        /* \".states/taskone/binarySearch.sol\":437:443  target */\n      dup5\n        /* \".states/taskone/binarySearch.sol\":425:428  arr */\n      dup7\n        /* \".states/taskone/binarySearch.sol\":429:432  mid */\n      dup3\n        /* \".states/taskone/binarySearch.sol\":425:433  arr[mid] */\n      dup2\n      mload\n      dup2\n      lt\n      tag_26\n      jumpi\n      tag_27\n      tag_28\n      jump\t// in\n    tag_27:\n    tag_26:\n      0x20\n      mul\n      0x20\n      add\n      add\n      mload\n        /* \".states/taskone/binarySearch.sol\":425:443  arr[mid] == target */\n      sub\n        /* \".states/taskone/binarySearch.sol\":421:663  if (arr[mid] == target) {... */\n      tag_29\n      jumpi\n        /* \".states/taskone/binarySearch.sol\":471:474  mid */\n      dup1\n        /* \".states/taskone/binarySearch.sol\":464:474  return mid */\n      swap4\n      pop\n      pop\n      pop\n      pop\n      jump(tag_15)\n        /* \".states/taskone/binarySearch.sol\":421:663  if (arr[mid] == target) {... */\n    tag_29:\n        /* \".states/taskone/binarySearch.sol\":511:517  target */\n      dup5\n        /* \".states/taskone/binarySearch.sol\":500:503  arr */\n      dup7\n        /* \".states/taskone/binarySearch.sol\":504:507  mid */\n      dup3\n        /* \".states/taskone/binarySearch.sol\":500:508  arr[mid] */\n      dup2\n      mload\n      dup2\n      lt\n      tag_31\n      jumpi\n      tag_32\n      tag_28\n      jump\t// in\n    tag_32:\n    tag_31:\n      0x20\n      mul\n      0x20\n      add\n      add\n      mload\n        /* \".states/taskone/binarySearch.sol\":500:517  arr[mid] < target */\n      lt\n        /* \".states/taskone/binarySearch.sol\":496:663  if (arr[mid] < target) {... */\n      iszero\n      tag_33\n      jumpi\n        /* \".states/taskone/binarySearch.sol\":551:552  1 */\n      0x01\n        /* \".states/taskone/binarySearch.sol\":545:548  mid */\n      dup2\n        /* \".states/taskone/binarySearch.sol\":545:552  mid + 1 */\n      tag_34\n      swap2\n      swap1\n      tag_25\n      jump\t// in\n    tag_34:\n        /* \".states/taskone/binarySearch.sol\":538:552  left = mid + 1 */\n      swap3\n      pop\n        /* \".states/taskone/binarySearch.sol\":496:663  if (arr[mid] < target) {... */\n      jump(tag_35)\n    tag_33:\n        /* \".states/taskone/binarySearch.sol\":604:605  0 */\n      0x00\n        /* \".states/taskone/binarySearch.sol\":597:600  mid */\n      dup2\n        /* \".states/taskone/binarySearch.sol\":597:605  mid == 0 */\n      sub\n        /* \".states/taskone/binarySearch.sol\":593:612  if (mid == 0) break */\n      tag_36\n      jumpi\n        /* \".states/taskone/binarySearch.sol\":607:612  break */\n      pop\n      jump(tag_20)\n        /* \".states/taskone/binarySearch.sol\":593:612  if (mid == 0) break */\n    tag_36:\n        /* \".states/taskone/binarySearch.sol\":646:647  1 */\n      0x01\n        /* \".states/taskone/binarySearch.sol\":640:643  mid */\n      dup2\n        /* \".states/taskone/binarySearch.sol\":640:647  mid - 1 */\n      tag_37\n      swap2\n      swap1\n      tag_18\n      jump\t// in\n    tag_37:\n        /* \".states/taskone/binarySearch.sol\":632:647  right = mid - 1 */\n      swap2\n      pop\n        /* \".states/taskone/binarySearch.sol\":496:663  if (arr[mid] < target) {... */\n    tag_35:\n        /* \".states/taskone/binarySearch.sol\":353:674  {... */\n      pop\n        /* \".states/taskone/binarySearch.sol\":331:674  while (left <= right) {... */\n      jump(tag_19)\n    tag_20:\n        /* \".states/taskone/binarySearch.sol\":693:707  type(uint).max */\n      0xffffffffffffffffffffffffffffffffffffffffffffffffffffffffffffffff\n        /* \".states/taskone/binarySearch.sol\":686:707  return type(uint).max */\n      swap3\n      pop\n      pop\n      pop\n        /* \".states/taskone/binarySearch.sol\":93:716  function binarySearch(uint[] memory arr, uint target) public pure returns (uint) {... */\n    tag_15:\n      swap3\n      swap2\n      pop\n      pop\n      jump\t// out\n        /* \".states/taskone/binarySearch.sol\":724:1259  function binarySearcht(uint[] memory arr, uint target) public pure returns (uint) {... */\n    tag_13:\n        /* \".states/taskone/binarySearch.sol\":800:804  uint */\n      0x00\n        /* \".states/taskone/binarySearch.sol\":832:833  0 */\n      0x00\n        /* \".states/taskone/binarySearch.sol\":820:823  arr */\n      dup4\n        /* \".states/taskone/binarySearch.sol\":820:830  arr.length */\n      mload\n        /* \".states/taskone/binarySearch.sol\":820:833  arr.length==0 */\n      sub\n        /* \".states/taskone/binarySearch.sol\":817:882  if(arr.length==0){... */\n      tag_39\n      jumpi\n        /* \".states/taskone/binarySearch.sol\":856:870  type(uint).max */\n      0xffffffffffffffffffffffffffffffffffffffffffffffffffffffffffffffff\n        /* \".states/taskone/binarySearch.sol\":849:870  return type(uint).max */\n      swap1\n      pop\n      jump(tag_38)\n        /* \".states/taskone/binarySearch.sol\":817:882  if(arr.length==0){... */\n    tag_39:\n        /* \".states/taskone/binarySearch.sol\":890:899  uint left */\n      0x00\n        /* \".states/taskone/binarySearch.sol\":906:916  uint right */\n      0x00\n        /* \".states/taskone/binarySearch.sol\":930:931  1 */\n      0x01\n        /* \".states/taskone/binarySearch.sol\":919:922  arr */\n      dup6\n        /* \".states/taskone/binarySearch.sol\":919:929  arr.length */\n      mload\n        /* \".states/taskone/binarySearch.sol\":919:931  arr.length-1 */\n      tag_40\n      swap2\n      swap1\n      tag_18\n      jump\t// in\n    tag_40:\n        /* \".states/taskone/binarySearch.sol\":906:931  uint right = arr.length-1 */\n      swap1\n      pop\n        /* \".states/taskone/binarySearch.sol\":938:1224  while (left<=right) {... */\n    tag_41:\n        /* \".states/taskone/binarySearch.sol\":951:956  right */\n      dup1\n        /* \".states/taskone/binarySearch.sol\":945:949  left */\n      dup3\n        /* \".states/taskone/binarySearch.sol\":945:956  left<=right */\n      gt\n        /* \".states/taskone/binarySearch.sol\":938:1224  while (left<=right) {... */\n      tag_42\n      jumpi\n        /* \".states/taskone/binarySearch.sol\":969:977  uint mid */\n      0x00\n        /* \".states/taskone/binarySearch.sol\":1000:1001  2 */\n      0x02\n        /* \".states/taskone/binarySearch.sol\":994:998  left */\n      dup4\n        /* \".states/taskone/binarySearch.sol\":988:993  right */\n      dup4\n        /* \".states/taskone/binarySearch.sol\":988:998  right-left */\n      tag_43\n      swap2\n      swap1\n      tag_18\n      jump\t// in\n    tag_43:\n        /* \".states/taskone/binarySearch.sol\":987:1001  (right-left)/2 */\n      tag_44\n      swap2\n      swap1\n      tag_23\n      jump\t// in\n    tag_44:\n        /* \".states/taskone/binarySearch.sol\":980:984  left */\n      dup4\n        /* \".states/taskone/binarySearch.sol\":980:1001  left + (right-left)/2 */\n      tag_45\n      swap2\n      swap1\n      tag_25\n      jump\t// in\n    tag_45:\n        /* \".states/taskone/binarySearch.sol\":969:1001  uint mid = left + (right-left)/2 */\n      swap1\n      pop\n        /* \".states/taskone/binarySearch.sol\":1025:1031  target */\n      dup5\n        /* \".states/taskone/binarySearch.sol\":1015:1018  arr */\n      dup7\n        /* \".states/taskone/binarySearch.sol\":1019:1022  mid */\n      dup3\n        /* \".states/taskone/binarySearch.sol\":1015:1023  arr[mid] */\n      dup2\n      mload\n      dup2\n      lt\n      tag_46\n      jumpi\n      tag_47\n      tag_28\n      jump\t// in\n    tag_47:\n    tag_46:\n      0x20\n      mul\n      0x20\n      add\n      add\n      mload\n        /* \".states/taskone/binarySearch.sol\":1015:1031  arr[mid]==target */\n      sub\n        /* \".states/taskone/binarySearch.sol\":1012:1069  if(arr[mid]==target){... */\n      tag_48\n      jumpi\n        /* \".states/taskone/binarySearch.sol\":1054:1057  mid */\n      dup1\n        /* \".states/taskone/binarySearch.sol\":1047:1057  return mid */\n      swap4\n      pop\n      pop\n      pop\n      pop\n      jump(tag_38)\n        /* \".states/taskone/binarySearch.sol\":1012:1069  if(arr[mid]==target){... */\n    tag_48:\n        /* \".states/taskone/binarySearch.sol\":1091:1097  target */\n      dup5\n        /* \".states/taskone/binarySearch.sol\":1082:1085  arr */\n      dup7\n        /* \".states/taskone/binarySearch.sol\":1086:1089  mid */\n      dup3\n        /* \".states/taskone/binarySearch.sol\":1082:1090  arr[mid] */\n      dup2\n      mload\n      dup2\n      lt\n      tag_49\n      jumpi\n      tag_50\n      tag_28\n      jump\t// in\n    tag_50:\n    tag_49:\n      0x20\n      mul\n      0x20\n      add\n      add\n      mload\n        /* \".states/taskone/binarySearch.sol\":1082:1097  arr[mid]>target */\n      gt\n        /* \".states/taskone/binarySearch.sol\":1079:1217  if(arr[mid]>target){... */\n      iszero\n      tag_51\n      jumpi\n        /* \".states/taskone/binarySearch.sol\":1121:1122  0 */\n      0x00\n        /* \".states/taskone/binarySearch.sol\":1116:1119  mid */\n      dup2\n        /* \".states/taskone/binarySearch.sol\":1116:1122  mid==0 */\n      sub\n        /* \".states/taskone/binarySearch.sol\":1113:1129  if(mid==0) break */\n      tag_52\n      jumpi\n        /* \".states/taskone/binarySearch.sol\":1124:1129  break */\n      pop\n      jump(tag_42)\n        /* \".states/taskone/binarySearch.sol\":1113:1129  if(mid==0) break */\n    tag_52:\n        /* \".states/taskone/binarySearch.sol\":1158:1159  1 */\n      0x01\n        /* \".states/taskone/binarySearch.sol\":1152:1155  mid */\n      dup2\n        /* \".states/taskone/binarySearch.sol\":1152:1159  mid - 1 */\n      tag_53\n      swap2\n      swap1\n      tag_18\n      jump\t// in\n    tag_53:\n        /* \".states/taskone/binarySearch.sol\":1144:1159  right = mid - 1 */\n      swap2\n      pop\n        /* \".states/taskone/binarySearch.sol\":1079:1217  if(arr[mid]>target){... */\n      jump(tag_54)\n    tag_51:\n        /* \".states/taskone/binarySearch.sol\":1204:1205  1 */\n      0x01\n        /* \".states/taskone/binarySearch.sol\":1199:1202  mid */\n      dup2\n        /* \".states/taskone/binarySearch.sol\":1199:1205  mid +1 */\n      tag_55\n      swap2\n      swap1\n      tag_25\n      jump\t// in\n    tag_55:\n        /* \".states/taskone/binarySearch.sol\":1192:1205  left = mid +1 */\n      swap3\n      pop\n        /* \".states/taskone/binarySearch.sol\":1079:1217  if(arr[mid]>target){... */\n    tag_54:\n        /* \".states/taskone/binarySearch.sol\":958:1224  {... */\n      pop\n        /* \".states/taskone/binarySearch.sol\":938:1224  while (left<=right) {... */\n      jump(tag_41)\n    tag_42:\n        /* \".states/taskone/binarySearch.sol\":1237:1251  type(uint).max */\n      0xffffffffffffffffffffffffffffffffffffffffffffffffffffffffffffffff\n        /* \".states/taskone/binarySearch.sol\":1230:1251  return type(uint).max */\n      swap3\n      pop\n      pop\n      pop\n        /* \".states/taskone/binarySearch.sol\":724:1259  function binarySearcht(uint[] memory arr, uint target) public pure returns (uint) {... */\n    tag_38:\n      swap3\n      swap2\n      pop\n      pop\n      jump\t// out\n        /* \"#utility.yul\":7:82   */\n    tag_56:\n        /* \"#utility.yul\":40:46   */\n      0x00\n        /* \"#utility.yul\":73:75   */\n      0x40\n        /* \"#utility.yul\":67:76   */\n      mload\n        /* \"#utility.yul\":57:76   */\n      swap1\n      pop\n        /* \"#utility.yul\":7:82   */\n      swap1\n      jump\t// out\n        /* \"#utility.yul\":88:205   */\n    tag_57:\n        /* \"#utility.yul\":197:198   */\n      0x00\n        /* \"#utility.yul\":194:195   */\n      0x00\n        /* \"#utility.yul\":187:199   */\n      revert\n        /* \"#utility.yul\":211:328   */\n    tag_58:\n        /* \"#utility.yul\":320:321   */\n      0x00\n        /* \"#utility.yul\":317:318   */\n      0x00\n        /* \"#utility.yul\":310:322   */\n      revert\n        /* \"#utility.yul\":334:451   */\n    tag_59:\n        /* \"#utility.yul\":443:444   */\n      0x00\n        /* \"#utility.yul\":440:441   */\n      0x00\n        /* \"#utility.yul\":433:445   */\n      revert\n        /* \"#utility.yul\":457:559   */\n    tag_60:\n        /* \"#utility.yul\":498:504   */\n      0x00\n        /* \"#utility.yul\":549:551   */\n      0x1f\n        /* \"#utility.yul\":545:552   */\n      not\n        /* \"#utility.yul\":540:542   */\n      0x1f\n        /* \"#utility.yul\":533:538   */\n      dup4\n        /* \"#utility.yul\":529:543   */\n      add\n        /* \"#utility.yul\":525:553   */\n      and\n        /* \"#utility.yul\":515:553   */\n      swap1\n      pop\n        /* \"#utility.yul\":457:559   */\n      swap2\n      swap1\n      pop\n      jump\t// out\n        /* \"#utility.yul\":565:745   */\n    tag_61:\n        /* \"#utility.yul\":613:690   */\n      0x4e487b7100000000000000000000000000000000000000000000000000000000\n        /* \"#utility.yul\":610:611   */\n      0x00\n        /* \"#utility.yul\":603:691   */\n      mstore\n        /* \"#utility.yul\":710:714   */\n      0x41\n        /* \"#utility.yul\":707:708   */\n      0x04\n        /* \"#utility.yul\":700:715   */\n      mstore\n        /* \"#utility.yul\":734:738   */\n      0x24\n        /* \"#utility.yul\":731:732   */\n      0x00\n        /* \"#utility.yul\":724:739   */\n      revert\n        /* \"#utility.yul\":751:1032   */\n    tag_62:\n        /* \"#utility.yul\":834:861   */\n      tag_82\n        /* \"#utility.yul\":856:860   */\n      dup3\n        /* \"#utility.yul\":834:861   */\n      tag_60\n      jump\t// in\n    tag_82:\n        /* \"#utility.yul\":826:832   */\n      dup2\n        /* \"#utility.yul\":822:862   */\n      add\n        /* \"#utility.yul\":964:970   */\n      dup2\n        /* \"#utility.yul\":952:962   */\n      dup2\n        /* \"#utility.yul\":949:971   */\n      lt\n        /* \"#utility.yul\":928:946   */\n      0xffffffffffffffff\n        /* \"#utility.yul\":916:926   */\n      dup3\n        /* \"#utility.yul\":913:947   */\n      gt\n        /* \"#utility.yul\":910:972   */\n      or\n        /* \"#utility.yul\":907:995   */\n      iszero\n      tag_83\n      jumpi\n        /* \"#utility.yul\":975:993   */\n      tag_84\n      tag_61\n      jump\t// in\n    tag_84:\n        /* \"#utility.yul\":907:995   */\n    tag_83:\n        /* \"#utility.yul\":1015:1025   */\n      dup1\n        /* \"#utility.yul\":1011:1013   */\n      0x40\n        /* \"#utility.yul\":1004:1026   */\n      mstore\n        /* \"#utility.yul\":794:1032   */\n      pop\n        /* \"#utility.yul\":751:1032   */\n      pop\n      pop\n      jump\t// out\n        /* \"#utility.yul\":1038:1167   */\n    tag_63:\n        /* \"#utility.yul\":1072:1078   */\n      0x00\n        /* \"#utility.yul\":1099:1119   */\n      tag_86\n      tag_56\n      jump\t// in\n    tag_86:\n        /* \"#utility.yul\":1089:1119   */\n      swap1\n      pop\n        /* \"#utility.yul\":1128:1161   */\n      tag_87\n        /* \"#utility.yul\":1156:1160   */\n      dup3\n        /* \"#utility.yul\":1148:1154   */\n      dup3\n        /* \"#utility.yul\":1128:1161   */\n      tag_62\n      jump\t// in\n    tag_87:\n        /* \"#utility.yul\":1038:1167   */\n      swap2\n      swap1\n      pop\n      jump\t// out\n        /* \"#utility.yul\":1173:1484   */\n    tag_64:\n        /* \"#utility.yul\":1250:1254   */\n      0x00\n        /* \"#utility.yul\":1340:1358   */\n      0xffffffffffffffff\n        /* \"#utility.yul\":1332:1338   */\n      dup3\n        /* \"#utility.yul\":1329:1359   */\n      gt\n        /* \"#utility.yul\":1326:1382   */\n      iszero\n      tag_89\n      jumpi\n        /* \"#utility.yul\":1362:1380   */\n      tag_90\n      tag_61\n      jump\t// in\n    tag_90:\n        /* \"#utility.yul\":1326:1382   */\n    tag_89:\n        /* \"#utility.yul\":1412:1416   */\n      0x20\n        /* \"#utility.yul\":1404:1410   */\n      dup3\n        /* \"#utility.yul\":1400:1417   */\n      mul\n        /* \"#utility.yul\":1392:1417   */\n      swap1\n      pop\n        /* \"#utility.yul\":1472:1476   */\n      0x20\n        /* \"#utility.yul\":1466:1470   */\n      dup2\n        /* \"#utility.yul\":1462:1477   */\n      add\n        /* \"#utility.yul\":1454:1477   */\n      swap1\n      pop\n        /* \"#utility.yul\":1173:1484   */\n      swap2\n      swap1\n      pop\n      jump\t// out\n        /* \"#utility.yul\":1490:1607   */\n    tag_65:\n        /* \"#utility.yul\":1599:1600   */\n      0x00\n        /* \"#utility.yul\":1596:1597   */\n      0x00\n        /* \"#utility.yul\":1589:1601   */\n      revert\n        /* \"#utility.yul\":1613:1690   */\n    tag_66:\n        /* \"#utility.yul\":1650:1657   */\n      0x00\n        /* \"#utility.yul\":1679:1684   */\n      dup2\n        /* \"#utility.yul\":1668:1684   */\n      swap1\n      pop\n        /* \"#utility.yul\":1613:1690   */\n      swap2\n      swap1\n      pop\n      jump\t// out\n        /* \"#utility.yul\":1696:1818   */\n    tag_67:\n        /* \"#utility.yul\":1769:1793   */\n      tag_94\n        /* \"#utility.yul\":1787:1792   */\n      dup2\n        /* \"#utility.yul\":1769:1793   */\n      tag_66\n      jump\t// in\n    tag_94:\n        /* \"#utility.yul\":1762:1767   */\n      dup2\n        /* \"#utility.yul\":1759:1794   */\n      eq\n        /* \"#utility.yul\":1749:1812   */\n      tag_95\n      jumpi\n        /* \"#utility.yul\":1808:1809   */\n      0x00\n        /* \"#utility.yul\":1805:1806   */\n      0x00\n        /* \"#utility.yul\":1798:1810   */\n      revert\n        /* \"#utility.yul\":1749:1812   */\n    tag_95:\n        /* \"#utility.yul\":1696:1818   */\n      pop\n      jump\t// out\n        /* \"#utility.yul\":1824:1963   */\n    tag_68:\n        /* \"#utility.yul\":1870:1875   */\n      0x00\n        /* \"#utility.yul\":1908:1914   */\n      dup2\n        /* \"#utility.yul\":1895:1915   */\n      calldataload\n        /* \"#utility.yul\":1886:1915   */\n      swap1\n      pop\n        /* \"#utility.yul\":1924:1957   */\n      tag_97\n        /* \"#utility.yul\":1951:1956   */\n      dup2\n        /* \"#utility.yul\":1924:1957   */\n      tag_67\n      jump\t// in\n    tag_97:\n        /* \"#utility.yul\":1824:1963   */\n      swap3\n      swap2\n      pop\n      pop\n      jump\t// out\n        /* \"#utility.yul\":1986:2696   */\n    tag_69:\n        /* \"#utility.yul\":2082:2087   */\n      0x00\n        /* \"#utility.yul\":2107:2188   */\n      tag_99\n        /* \"#utility.yul\":2123:2187   */\n      tag_100\n        /* \"#utility.yul\":2180:2186   */\n      dup5\n        /* \"#utility.yul\":2123:2187   */\n      tag_64\n      jump\t// in\n    tag_100:\n        /* \"#utility.yul\":2107:2188   */\n      tag_63\n      jump\t// in\n    tag_99:\n        /* \"#utility.yul\":2098:2188   */\n      swap1\n      pop\n        /* \"#utility.yul\":2208:2213   */\n      dup1\n        /* \"#utility.yul\":2237:2243   */\n      dup4\n        /* \"#utility.yul\":2230:2235   */\n      dup3\n        /* \"#utility.yul\":2223:2244   */\n      mstore\n        /* \"#utility.yul\":2271:2275   */\n      0x20\n        /* \"#utility.yul\":2264:2269   */\n      dup3\n        /* \"#utility.yul\":2260:2276   */\n      add\n        /* \"#utility.yul\":2253:2276   */\n      swap1\n      pop\n        /* \"#utility.yul\":2324:2328   */\n      0x20\n        /* \"#utility.yul\":2316:2322   */\n      dup5\n        /* \"#utility.yul\":2312:2329   */\n      mul\n        /* \"#utility.yul\":2304:2310   */\n      dup4\n        /* \"#utility.yul\":2300:2330   */\n      add\n        /* \"#utility.yul\":2353:2356   */\n      dup6\n        /* \"#utility.yul\":2345:2351   */\n      dup2\n        /* \"#utility.yul\":2342:2357   */\n      gt\n        /* \"#utility.yul\":2339:2461   */\n      iszero\n      tag_101\n      jumpi\n        /* \"#utility.yul\":2372:2451   */\n      tag_102\n      tag_65\n      jump\t// in\n    tag_102:\n        /* \"#utility.yul\":2339:2461   */\n    tag_101:\n        /* \"#utility.yul\":2487:2493   */\n      dup4\n        /* \"#utility.yul\":2470:2690   */\n    tag_103:\n        /* \"#utility.yul\":2504:2510   */\n      dup2\n        /* \"#utility.yul\":2499:2502   */\n      dup2\n        /* \"#utility.yul\":2496:2511   */\n      lt\n        /* \"#utility.yul\":2470:2690   */\n      iszero\n      tag_105\n      jumpi\n        /* \"#utility.yul\":2579:2582   */\n      dup1\n        /* \"#utility.yul\":2608:2645   */\n      tag_106\n        /* \"#utility.yul\":2641:2644   */\n      dup9\n        /* \"#utility.yul\":2629:2639   */\n      dup3\n        /* \"#utility.yul\":2608:2645   */\n      tag_68\n      jump\t// in\n    tag_106:\n        /* \"#utility.yul\":2603:2606   */\n      dup5\n        /* \"#utility.yul\":2596:2646   */\n      mstore\n        /* \"#utility.yul\":2675:2679   */\n      0x20\n        /* \"#utility.yul\":2670:2673   */\n      dup5\n        /* \"#utility.yul\":2666:2680   */\n      add\n        /* \"#utility.yul\":2659:2680   */\n      swap4\n      pop\n        /* \"#utility.yul\":2546:2690   */\n      pop\n        /* \"#utility.yul\":2530:2534   */\n      0x20\n        /* \"#utility.yul\":2525:2528   */\n      dup2\n        /* \"#utility.yul\":2521:2535   */\n      add\n        /* \"#utility.yul\":2514:2535   */\n      swap1\n      pop\n        /* \"#utility.yul\":2470:2690   */\n      jump(tag_103)\n    tag_105:\n        /* \"#utility.yul\":2474:2495   */\n      pop\n        /* \"#utility.yul\":2088:2696   */\n      pop\n      pop\n        /* \"#utility.yul\":1986:2696   */\n      swap4\n      swap3\n      pop\n      pop\n      pop\n      jump\t// out\n        /* \"#utility.yul\":2719:3089   */\n    tag_70:\n        /* \"#utility.yul\":2790:2795   */\n      0x00\n        /* \"#utility.yul\":2839:2842   */\n      dup3\n        /* \"#utility.yul\":2832:2836   */\n      0x1f\n        /* \"#utility.yul\":2824:2830   */\n      dup4\n        /* \"#utility.yul\":2820:2837   */\n      add\n        /* \"#utility.yul\":2816:2843   */\n      slt\n        /* \"#utility.yul\":2806:2928   */\n      tag_108\n      jumpi\n        /* \"#utility.yul\":2847:2926   */\n      tag_109\n      tag_59\n      jump\t// in\n    tag_109:\n        /* \"#utility.yul\":2806:2928   */\n    tag_108:\n        /* \"#utility.yul\":2964:2970   */\n      dup2\n        /* \"#utility.yul\":2951:2971   */\n      calldataload\n        /* \"#utility.yul\":2989:3083   */\n      tag_110\n        /* \"#utility.yul\":3079:3082   */\n      dup5\n        /* \"#utility.yul\":3071:3077   */\n      dup3\n        /* \"#utility.yul\":3064:3068   */\n      0x20\n        /* \"#utility.yul\":3056:3062   */\n      dup7\n        /* \"#utility.yul\":3052:3069   */\n      add\n        /* \"#utility.yul\":2989:3083   */\n      tag_69\n      jump\t// in\n    tag_110:\n        /* \"#utility.yul\":2980:3083   */\n      swap2\n      pop\n        /* \"#utility.yul\":2796:3089   */\n      pop\n        /* \"#utility.yul\":2719:3089   */\n      swap3\n      swap2\n      pop\n      pop\n      jump\t// out\n        /* \"#utility.yul\":3095:3779   */\n    tag_7:\n        /* \"#utility.yul\":3188:3194   */\n      0x00\n        /* \"#utility.yul\":3196:3202   */\n      0x00\n        /* \"#utility.yul\":3245:3247   */\n      0x40\n        /* \"#utility.yul\":3233:3242   */\n      dup4\n        /* \"#utility.yul\":3224:3231   */\n      dup6\n        /* \"#utility.yul\":3220:3243   */\n      sub\n        /* \"#utility.yul\":3216:3248   */\n      slt\n        /* \"#utility.yul\":3213:3332   */\n      iszero\n      tag_112\n      jumpi\n        /* \"#utility.yul\":3251:3330   */\n      tag_113\n      tag_57\n      jump\t// in\n    tag_113:\n        /* \"#utility.yul\":3213:3332   */\n    tag_112:\n        /* \"#utility.yul\":3399:3400   */\n      0x00\n        /* \"#utility.yul\":3388:3397   */\n      dup4\n        /* \"#utility.yul\":3384:3401   */\n      add\n        /* \"#utility.yul\":3371:3402   */\n      calldataload\n        /* \"#utility.yul\":3429:3447   */\n      0xffffffffffffffff\n        /* \"#utility.yul\":3421:3427   */\n      dup2\n        /* \"#utility.yul\":3418:3448   */\n      gt\n        /* \"#utility.yul\":3415:3532   */\n      iszero\n      tag_114\n      jumpi\n        /* \"#utility.yul\":3451:3530   */\n      tag_115\n      tag_58\n      jump\t// in\n    tag_115:\n        /* \"#utility.yul\":3415:3532   */\n    tag_114:\n        /* \"#utility.yul\":3556:3634   */\n      tag_116\n        /* \"#utility.yul\":3626:3633   */\n      dup6\n        /* \"#utility.yul\":3617:3623   */\n      dup3\n        /* \"#utility.yul\":3606:3615   */\n      dup7\n        /* \"#utility.yul\":3602:3624   */\n      add\n        /* \"#utility.yul\":3556:3634   */\n      tag_70\n      jump\t// in\n    tag_116:\n        /* \"#utility.yul\":3546:3634   */\n      swap3\n      pop\n        /* \"#utility.yul\":3342:3644   */\n      pop\n        /* \"#utility.yul\":3683:3685   */\n      0x20\n        /* \"#utility.yul\":3709:3762   */\n      tag_117\n        /* \"#utility.yul\":3754:3761   */\n      dup6\n        /* \"#utility.yul\":3745:3751   */\n      dup3\n        /* \"#utility.yul\":3734:3743   */\n      dup7\n        /* \"#utility.yul\":3730:3752   */\n      add\n        /* \"#utility.yul\":3709:3762   */\n      tag_68\n      jump\t// in\n    tag_117:\n        /* \"#utility.yul\":3699:3762   */\n      swap2\n      pop\n        /* \"#utility.yul\":3654:3772   */\n      pop\n        /* \"#utility.yul\":3095:3779   */\n      swap3\n      pop\n      swap3\n      swap1\n      pop\n      jump\t// out\n        /* \"#utility.yul\":3785:3903   */\n    tag_71:\n        /* \"#utility.yul\":3872:3896   */\n      tag_119\n        /* \"#utility.yul\":3890:3895   */\n      dup2\n        /* \"#utility.yul\":3872:3896   */\n      tag_66\n      jump\t// in\n    tag_119:\n        /* \"#utility.yul\":3867:3870   */\n      dup3\n        /* \"#utility.yul\":3860:3897   */\n      mstore\n        /* \"#utility.yul\":3785:3903   */\n      pop\n      pop\n      jump\t// out\n        /* \"#utility.yul\":3909:4131   */\n    tag_10:\n        /* \"#utility.yul\":4002:4006   */\n      0x00\n        /* \"#utility.yul\":4040:4042   */\n      0x20\n        /* \"#utility.yul\":4029:4038   */\n      dup3\n        /* \"#utility.yul\":4025:4043   */\n      add\n        /* \"#utility.yul\":4017:4043   */\n      swap1\n      pop\n        /* \"#utility.yul\":4053:4124   */\n      tag_121\n        /* \"#utility.yul\":4121:4122   */\n      0x00\n        /* \"#utility.yul\":4110:4119   */\n      dup4\n        /* \"#utility.yul\":4106:4123   */\n      add\n        /* \"#utility.yul\":4097:4103   */\n      dup5\n        /* \"#utility.yul\":4053:4124   */\n      tag_71\n      jump\t// in\n    tag_121:\n        /* \"#utility.yul\":3909:4131   */\n      swap3\n      swap2\n      pop\n      pop\n      jump\t// out\n        /* \"#utility.yul\":4137:4317   */\n    tag_72:\n        /* \"#utility.yul\":4185:4262   */\n      0x4e487b7100000000000000000000000000000000000000000000000000000000\n        /* \"#utility.yul\":4182:4183   */\n      0x00\n        /* \"#utility.yul\":4175:4263   */\n      mstore\n        /* \"#utility.yul\":4282:4286   */\n      0x11\n        /* \"#utility.yul\":4279:4280   */\n      0x04\n        /* \"#utility.yul\":4272:4287   */\n      mstore\n        /* \"#utility.yul\":4306:4310   */\n      0x24\n        /* \"#utility.yul\":4303:4304   */\n      0x00\n        /* \"#utility.yul\":4296:4311   */\n      revert\n        /* \"#utility.yul\":4323:4517   */\n    tag_18:\n        /* \"#utility.yul\":4363:4367   */\n      0x00\n        /* \"#utility.yul\":4383:4403   */\n      tag_124\n        /* \"#utility.yul\":4401:4402   */\n      dup3\n        /* \"#utility.yul\":4383:4403   */\n      tag_66\n      jump\t// in\n    tag_124:\n        /* \"#utility.yul\":4378:4403   */\n      swap2\n      pop\n        /* \"#utility.yul\":4417:4437   */\n      tag_125\n        /* \"#utility.yul\":4435:4436   */\n      dup4\n        /* \"#utility.yul\":4417:4437   */\n      tag_66\n      jump\t// in\n    tag_125:\n        /* \"#utility.yul\":4412:4437   */\n      swap3\n      pop\n        /* \"#utility.yul\":4461:4462   */\n      dup3\n        /* \"#utility.yul\":4458:4459   */\n      dup3\n        /* \"#utility.yul\":4454:4463   */\n      sub\n        /* \"#utility.yul\":4446:4463   */\n      swap1\n      pop\n        /* \"#utility.yul\":4485:4486   */\n      dup2\n        /* \"#utility.yul\":4479:4483   */\n      dup2\n        /* \"#utility.yul\":4476:4487   */\n      gt\n        /* \"#utility.yul\":4473:4510   */\n      iszero\n      tag_126\n      jumpi\n        /* \"#utility.yul\":4490:4508   */\n      tag_127\n      tag_72\n      jump\t// in\n    tag_127:\n        /* \"#utility.yul\":4473:4510   */\n    tag_126:\n        /* \"#utility.yul\":4323:4517   */\n      swap3\n      swap2\n      pop\n      pop\n      jump\t// out\n        /* \"#utility.yul\":4523:4703   */\n    tag_73:\n        /* \"#utility.yul\":4571:4648   */\n      0x4e487b7100000000000000000000000000000000000000000000000000000000\n        /* \"#utility.yul\":4568:4569   */\n      0x00\n        /* \"#utility.yul\":4561:4649   */\n      mstore\n        /* \"#utility.yul\":4668:4672   */\n      0x12\n        /* \"#utility.yul\":4665:4666   */\n      0x04\n        /* \"#utility.yul\":4658:4673   */\n      mstore\n        /* \"#utility.yul\":4692:4696   */\n      0x24\n        /* \"#utility.yul\":4689:4690   */\n      0x00\n        /* \"#utility.yul\":4682:4697   */\n      revert\n        /* \"#utility.yul\":4709:4894   */\n    tag_23:\n        /* \"#utility.yul\":4749:4750   */\n      0x00\n        /* \"#utility.yul\":4766:4786   */\n      tag_130\n        /* \"#utility.yul\":4784:4785   */\n      dup3\n        /* \"#utility.yul\":4766:4786   */\n      tag_66\n      jump\t// in\n    tag_130:\n        /* \"#utility.yul\":4761:4786   */\n      swap2\n      pop\n        /* \"#utility.yul\":4800:4820   */\n      tag_131\n        /* \"#utility.yul\":4818:4819   */\n      dup4\n        /* \"#utility.yul\":4800:4820   */\n      tag_66\n      jump\t// in\n    tag_131:\n        /* \"#utility.yul\":4795:4820   */\n      swap3\n      pop\n        /* \"#utility.yul\":4839:4840   */\n      dup3\n        /* \"#utility.yul\":4829:4864   */\n      tag_132\n      jumpi\n        /* \"#utility.yul\":4844:4862   */\n      tag_133\n      tag_73\n      jump\t// in\n    tag_133:\n        /* \"#utility.yul\":4829:4864   */\n    tag_132:\n        /* \"#utility.yul\":4886:4887   */\n      dup3\n        /* \"#utility.yul\":4883:4884   */\n      dup3\n        /* \"#utility.yul\":4879:4888   */\n      div\n        /* \"#utility.yul\":4874:4888   */\n      swap1\n      pop\n        /* \"#utility.yul\":4709:4894   */\n      swap3\n      swap2\n      pop\n      pop\n      jump\t// out\n        /* \"#utility.yul\":4900:5091   */\n    tag_25:\n        /* \"#utility.yul\":4940:4943   */\n      0x00\n        /* \"#utility.yul\":4959:4979   */\n      tag_135\n        /* \"#utility.yul\":4977:4978   */\n      dup3\n        /* \"#utility.yul\":4959:4979   */\n      tag_66\n      jump\t// in\n    tag_135:\n        /* \"#utility.yul\":4954:4979   */\n      swap2\n      pop\n        /* \"#utility.yul\":4993:5013   */\n      tag_136\n        /* \"#utility.yul\":5011:5012   */\n      dup4\n        /* \"#utility.yul\":4993:5013   */\n      tag_66\n      jump\t// in\n    tag_136:\n        /* \"#utility.yul\":4988:5013   */\n      swap3\n      pop\n        /* \"#utility.yul\":5036:5037   */\n      dup3\n        /* \"#utility.yul\":5033:5034   */\n      dup3\n        /* \"#utility.yul\":5029:5038   */\n      add\n        /* \"#utility.yul\":5022:5038   */\n      swap1\n      pop\n        /* \"#utility.yul\":5057:5060   */\n      dup1\n        /* \"#utility.yul\":5054:5055   */\n      dup3\n        /* \"#utility.yul\":5051:5061   */\n      gt\n        /* \"#utility.yul\":5048:5084   */\n      iszero\n      tag_137\n      jumpi\n        /* \"#utility.yul\":5064:5082   */\n      tag_138\n      tag_72\n      jump\t// in\n    tag_138:\n        /* \"#utility.yul\":5048:5084   */\n    tag_137:\n        /* \"#utility.yul\":4900:5091   */\n      swap3\n      swap2\n      pop\n      pop\n      jump\t// out\n        /* \"#utility.yul\":5097:5277   */\n    tag_28:\n        /* \"#utility.yul\":5145:5222   */\n      0x4e487b7100000000000000000000000000000000000000000000000000000000\n        /* \"#utility.yul\":5142:5143   */\n      0x00\n        /* \"#utility.yul\":5135:5223   */\n      mstore\n        /* \"#utility.yul\":5242:5246   */\n      0x32\n        /* \"#utility.yul\":5239:5240   */\n      0x04\n        /* \"#utility.yul\":5232:5247   */\n      mstore\n        /* \"#utility.yul\":5266:5270   */\n      0x24\n        /* \"#utility.yul\":5263:5264   */\n      0x00\n        /* \"#utility.yul\":5256:5271   */\n      revert\n\n    auxdata: 0xa264697066735822122025ade463ec059ee5f3fe2dfec4606f0b0be849342beebb90e514366681068d8d64736f6c634300081e0033\n}\n",
				"bytecode": {
					"linkReferences": {},
					"object": "6080604052348015600e575f5ffd5b506106488061001c5f395ff3fe608060405234801561000f575f5ffd5b5060043610610034575f3560e01c8063b12601da14610038578063dd0e4a1e14610068575b5f5ffd5b610052600480360381019061004d9190610473565b610098565b60405161005f91906104dc565b60405180910390f35b610082600480360381019061007d9190610473565b6101bd565b60405161008f91906104dc565b60405180910390f35b5f5f8351036100c9577fffffffffffffffffffffffffffffffffffffffffffffffffffffffffffffffff90506101b7565b5f5f90505f600185516100dc9190610522565b90505b808211610191575f600283836100f59190610522565b6100ff9190610582565b8361010a91906105b2565b9050848682815181106101205761011f6105e5565b5b602002602001015103610138578093505050506101b7565b8486828151811061014c5761014b6105e5565b5b6020026020010151101561016e5760018161016791906105b2565b925061018b565b5f810361017b5750610191565b6001816101889190610522565b91505b506100df565b7fffffffffffffffffffffffffffffffffffffffffffffffffffffffffffffffff925050505b92915050565b5f5f8351036101ee577fffffffffffffffffffffffffffffffffffffffffffffffffffffffffffffffff90506102d9565b5f5f600185516101fe9190610522565b90505b8082116102b3575f600283836102179190610522565b6102219190610582565b8361022c91906105b2565b905084868281518110610242576102416105e5565b5b60200260200101510361025a578093505050506102d9565b8486828151811061026e5761026d6105e5565b5b6020026020010151111561029d575f810361028957506102b3565b6001816102969190610522565b91506102ad565b6001816102aa91906105b2565b92505b50610201565b7fffffffffffffffffffffffffffffffffffffffffffffffffffffffffffffffff925050505b92915050565b5f604051905090565b5f5ffd5b5f5ffd5b5f5ffd5b5f601f19601f8301169050919050565b7f4e487b71000000000000000000000000000000000000000000000000000000005f52604160045260245ffd5b61033a826102f4565b810181811067ffffffffffffffff8211171561035957610358610304565b5b80604052505050565b5f61036b6102df565b90506103778282610331565b919050565b5f67ffffffffffffffff82111561039657610395610304565b5b602082029050602081019050919050565b5f5ffd5b5f819050919050565b6103bd816103ab565b81146103c7575f5ffd5b50565b5f813590506103d8816103b4565b92915050565b5f6103f06103eb8461037c565b610362565b90508083825260208201905060208402830185811115610413576104126103a7565b5b835b8181101561043c578061042888826103ca565b845260208401935050602081019050610415565b5050509392505050565b5f82601f83011261045a576104596102f0565b5b813561046a8482602086016103de565b91505092915050565b5f5f60408385031215610489576104886102e8565b5b5f83013567ffffffffffffffff8111156104a6576104a56102ec565b5b6104b285828601610446565b92505060206104c3858286016103ca565b9150509250929050565b6104d6816103ab565b82525050565b5f6020820190506104ef5f8301846104cd565b92915050565b7f4e487b71000000000000000000000000000000000000000000000000000000005f52601160045260245ffd5b5f61052c826103ab565b9150610537836103ab565b925082820390508181111561054f5761054e6104f5565b5b92915050565b7f4e487b71000000000000000000000000000000000000000000000000000000005f52601260045260245ffd5b5f61058c826103ab565b9150610597836103ab565b9250826105a7576105a6610555565b5b828204905092915050565b5f6105bc826103ab565b91506105c7836103ab565b92508282019050808211156105df576105de6104f5565b5b92915050565b7f4e487b71000000000000000000000000000000000000000000000000000000005f52603260045260245ffdfea264697066735822122025ade463ec059ee5f3fe2dfec4606f0b0be849342beebb90e514366681068d8d64736f6c634300081e0033",
					"opcodes": "PUSH1 0x80 PUSH1 0x40 MSTORE CALLVALUE DUP1 ISZERO PUSH1 0xE JUMPI PUSH0 PUSH0 REVERT JUMPDEST POP PUSH2 0x648 DUP1 PUSH2 0x1C PUSH0 CODECOPY PUSH0 RETURN INVALID PUSH1 0x80 PUSH1 0x40 MSTORE CALLVALUE DUP1 ISZERO PUSH2 0xF JUMPI PUSH0 PUSH0 REVERT JUMPDEST POP PUSH1 0x4 CALLDATASIZE LT PUSH2 0x34 JUMPI PUSH0 CALLDATALOAD PUSH1 0xE0 SHR DUP1 PUSH4 0xB12601DA EQ PUSH2 0x38 JUMPI DUP1 PUSH4 0xDD0E4A1E EQ PUSH2 0x68 JUMPI JUMPDEST PUSH0 PUSH0 REVERT JUMPDEST PUSH2 0x52 PUSH1 0x4 DUP1 CALLDATASIZE SUB DUP2 ADD SWAP1 PUSH2 0x4D SWAP2 SWAP1 PUSH2 0x473 JUMP JUMPDEST PUSH2 0x98 JUMP JUMPDEST PUSH1 0x40 MLOAD PUSH2 0x5F SWAP2 SWAP1 PUSH2 0x4DC JUMP JUMPDEST PUSH1 0x40 MLOAD DUP1 SWAP2 SUB SWAP1 RETURN JUMPDEST PUSH2 0x82 PUSH1 0x4 DUP1 CALLDATASIZE SUB DUP2 ADD SWAP1 PUSH2 0x7D SWAP2 SWAP1 PUSH2 0x473 JUMP JUMPDEST PUSH2 0x1BD JUMP JUMPDEST PUSH1 0x40 MLOAD PUSH2 0x8F SWAP2 SWAP1 PUSH2 0x4DC JUMP JUMPDEST PUSH1 0x40 MLOAD DUP1 SWAP2 SUB SWAP1 RETURN JUMPDEST PUSH0 PUSH0 DUP4 MLOAD SUB PUSH2 0xC9 JUMPI PUSH32 0xFFFFFFFFFFFFFFFFFFFFFFFFFFFFFFFFFFFFFFFFFFFFFFFFFFFFFFFFFFFFFFFF SWAP1 POP PUSH2 0x1B7 JUMP JUMPDEST PUSH0 PUSH0 SWAP1 POP PUSH0 PUSH1 0x1 DUP6 MLOAD PUSH2 0xDC SWAP2 SWAP1 PUSH2 0x522 JUMP JUMPDEST SWAP1 POP JUMPDEST DUP1 DUP3 GT PUSH2 0x191 JUMPI PUSH0 PUSH1 0x2 DUP4 DUP4 PUSH2 0xF5 SWAP2 SWAP1 PUSH2 0x522 JUMP JUMPDEST PUSH2 0xFF SWAP2 SWAP1 PUSH2 0x582 JUMP JUMPDEST DUP4 PUSH2 0x10A SWAP2 SWAP1 PUSH2 0x5B2 JUMP JUMPDEST SWAP1 POP DUP5 DUP7 DUP3 DUP2 MLOAD DUP2 LT PUSH2 0x120 JUMPI PUSH2 0x11F PUSH2 0x5E5 JUMP JUMPDEST JUMPDEST PUSH1 0x20 MUL PUSH1 0x20 ADD ADD MLOAD SUB PUSH2 0x138 JUMPI DUP1 SWAP4 POP POP POP POP PUSH2 0x1B7 JUMP JUMPDEST DUP5 DUP7 DUP3 DUP2 MLOAD DUP2 LT PUSH2 0x14C JUMPI PUSH2 0x14B PUSH2 0x5E5 JUMP JUMPDEST JUMPDEST PUSH1 0x20 MUL PUSH1 0x20 ADD ADD MLOAD LT ISZERO PUSH2 0x16E JUMPI PUSH1 0x1 DUP2 PUSH2 0x167 SWAP2 SWAP1 PUSH2 0x5B2 JUMP JUMPDEST SWAP3 POP PUSH2 0x18B JUMP JUMPDEST PUSH0 DUP2 SUB PUSH2 0x17B JUMPI POP PUSH2 0x191 JUMP JUMPDEST PUSH1 0x1 DUP2 PUSH2 0x188 SWAP2 SWAP1 PUSH2 0x522 JUMP JUMPDEST SWAP2 POP JUMPDEST POP PUSH2 0xDF JUMP JUMPDEST PUSH32 0xFFFFFFFFFFFFFFFFFFFFFFFFFFFFFFFFFFFFFFFFFFFFFFFFFFFFFFFFFFFFFFFF SWAP3 POP POP POP JUMPDEST SWAP3 SWAP2 POP POP JUMP JUMPDEST PUSH0 PUSH0 DUP4 MLOAD SUB PUSH2 0x1EE JUMPI PUSH32 0xFFFFFFFFFFFFFFFFFFFFFFFFFFFFFFFFFFFFFFFFFFFFFFFFFFFFFFFFFFFFFFFF SWAP1 POP PUSH2 0x2D9 JUMP JUMPDEST PUSH0 PUSH0 PUSH1 0x1 DUP6 MLOAD PUSH2 0x1FE SWAP2 SWAP1 PUSH2 0x522 JUMP JUMPDEST SWAP1 POP JUMPDEST DUP1 DUP3 GT PUSH2 0x2B3 JUMPI PUSH0 PUSH1 0x2 DUP4 DUP4 PUSH2 0x217 SWAP2 SWAP1 PUSH2 0x522 JUMP JUMPDEST PUSH2 0x221 SWAP2 SWAP1 PUSH2 0x582 JUMP JUMPDEST DUP4 PUSH2 0x22C SWAP2 SWAP1 PUSH2 0x5B2 JUMP JUMPDEST SWAP1 POP DUP5 DUP7 DUP3 DUP2 MLOAD DUP2 LT PUSH2 0x242 JUMPI PUSH2 0x241 PUSH2 0x5E5 JUMP JUMPDEST JUMPDEST PUSH1 0x20 MUL PUSH1 0x20 ADD ADD MLOAD SUB PUSH2 0x25A JUMPI DUP1 SWAP4 POP POP POP POP PUSH2 0x2D9 JUMP JUMPDEST DUP5 DUP7 DUP3 DUP2 MLOAD DUP2 LT PUSH2 0x26E JUMPI PUSH2 0x26D PUSH2 0x5E5 JUMP JUMPDEST JUMPDEST PUSH1 0x20 MUL PUSH1 0x20 ADD ADD MLOAD GT ISZERO PUSH2 0x29D JUMPI PUSH0 DUP2 SUB PUSH2 0x289 JUMPI POP PUSH2 0x2B3 JUMP JUMPDEST PUSH1 0x1 DUP2 PUSH2 0x296 SWAP2 SWAP1 PUSH2 0x522 JUMP JUMPDEST SWAP2 POP PUSH2 0x2AD JUMP JUMPDEST PUSH1 0x1 DUP2 PUSH2 0x2AA SWAP2 SWAP1 PUSH2 0x5B2 JUMP JUMPDEST SWAP3 POP JUMPDEST POP PUSH2 0x201 JUMP JUMPDEST PUSH32 0xFFFFFFFFFFFFFFFFFFFFFFFFFFFFFFFFFFFFFFFFFFFFFFFFFFFFFFFFFFFFFFFF SWAP3 POP POP POP JUMPDEST SWAP3 SWAP2 POP POP JUMP JUMPDEST PUSH0 PUSH1 0x40 MLOAD SWAP1 POP SWAP1 JUMP JUMPDEST PUSH0 PUSH0 REVERT JUMPDEST PUSH0 PUSH0 REVERT JUMPDEST PUSH0 PUSH0 REVERT JUMPDEST PUSH0 PUSH1 0x1F NOT PUSH1 0x1F DUP4 ADD AND SWAP1 POP SWAP2 SWAP1 POP JUMP JUMPDEST PUSH32 0x4E487B7100000000000000000000000000000000000000000000000000000000 PUSH0 MSTORE PUSH1 0x41 PUSH1 0x4 MSTORE PUSH1 0x24 PUSH0 REVERT JUMPDEST PUSH2 0x33A DUP3 PUSH2 0x2F4 JUMP JUMPDEST DUP2 ADD DUP2 DUP2 LT PUSH8 0xFFFFFFFFFFFFFFFF DUP3 GT OR ISZERO PUSH2 0x359 JUMPI PUSH2 0x358 PUSH2 0x304 JUMP JUMPDEST JUMPDEST DUP1 PUSH1 0x40 MSTORE POP POP POP JUMP JUMPDEST PUSH0 PUSH2 0x36B PUSH2 0x2DF JUMP JUMPDEST SWAP1 POP PUSH2 0x377 DUP3 DUP3 PUSH2 0x331 JUMP JUMPDEST SWAP2 SWAP1 POP JUMP JUMPDEST PUSH0 PUSH8 0xFFFFFFFFFFFFFFFF DUP3 GT ISZERO PUSH2 0x396 JUMPI PUSH2 0x395 PUSH2 0x304 JUMP JUMPDEST JUMPDEST PUSH1 0x20 DUP3 MUL SWAP1 POP PUSH1 0x20 DUP2 ADD SWAP1 POP SWAP2 SWAP1 POP JUMP JUMPDEST PUSH0 PUSH0 REVERT JUMPDEST PUSH0 DUP2 SWAP1 POP SWAP2 SWAP1 POP JUMP JUMPDEST PUSH2 0x3BD DUP2 PUSH2 0x3AB JUMP JUMPDEST DUP2 EQ PUSH2 0x3C7 JUMPI PUSH0 PUSH0 REVERT JUMPDEST POP JUMP JUMPDEST PUSH0 DUP2 CALLDATALOAD SWAP1 POP PUSH2 0x3D8 DUP2 PUSH2 0x3B4 JUMP JUMPDEST SWAP3 SWAP2 POP POP JUMP JUMPDEST PUSH0 PUSH2 0x3F0 PUSH2 0x3EB DUP5 PUSH2 0x37C JUMP JUMPDEST PUSH2 0x362 JUMP JUMPDEST SWAP1 POP DUP1 DUP4 DUP3 MSTORE PUSH1 0x20 DUP3 ADD SWAP1 POP PUSH1 0x20 DUP5 MUL DUP4 ADD DUP6 DUP2 GT ISZERO PUSH2 0x413 JUMPI PUSH2 0x412 PUSH2 0x3A7 JUMP JUMPDEST JUMPDEST DUP4 JUMPDEST DUP2 DUP2 LT ISZERO PUSH2 0x43C JUMPI DUP1 PUSH2 0x428 DUP9 DUP3 PUSH2 0x3CA JUMP JUMPDEST DUP5 MSTORE PUSH1 0x20 DUP5 ADD SWAP4 POP POP PUSH1 0x20 DUP2 ADD SWAP1 POP PUSH2 0x415 JUMP JUMPDEST POP POP POP SWAP4 SWAP3 POP POP POP JUMP JUMPDEST PUSH0 DUP3 PUSH1 0x1F DUP4 ADD SLT PUSH2 0x45A JUMPI PUSH2 0x459 PUSH2 0x2F0 JUMP JUMPDEST JUMPDEST DUP2 CALLDATALOAD PUSH2 0x46A DUP5 DUP3 PUSH1 0x20 DUP7 ADD PUSH2 0x3DE JUMP JUMPDEST SWAP2 POP POP SWAP3 SWAP2 POP POP JUMP JUMPDEST PUSH0 PUSH0 PUSH1 0x40 DUP4 DUP6 SUB SLT ISZERO PUSH2 0x489 JUMPI PUSH2 0x488 PUSH2 0x2E8 JUMP JUMPDEST JUMPDEST PUSH0 DUP4 ADD CALLDATALOAD PUSH8 0xFFFFFFFFFFFFFFFF DUP2 GT ISZERO PUSH2 0x4A6 JUMPI PUSH2 0x4A5 PUSH2 0x2EC JUMP JUMPDEST JUMPDEST PUSH2 0x4B2 DUP6 DUP3 DUP7 ADD PUSH2 0x446 JUMP JUMPDEST SWAP3 POP POP PUSH1 0x20 PUSH2 0x4C3 DUP6 DUP3 DUP7 ADD PUSH2 0x3CA JUMP JUMPDEST SWAP2 POP POP SWAP3 POP SWAP3 SWAP1 POP JUMP JUMPDEST PUSH2 0x4D6 DUP2 PUSH2 0x3AB JUMP JUMPDEST DUP3 MSTORE POP POP JUMP JUMPDEST PUSH0 PUSH1 0x20 DUP3 ADD SWAP1 POP PUSH2 0x4EF PUSH0 DUP4 ADD DUP5 PUSH2 0x4CD JUMP JUMPDEST SWAP3 SWAP2 POP POP JUMP JUMPDEST PUSH32 0x4E487B7100000000000000000000000000000000000000000000000000000000 PUSH0 MSTORE PUSH1 0x11 PUSH1 0x4 MSTORE PUSH1 0x24 PUSH0 REVERT JUMPDEST PUSH0 PUSH2 0x52C DUP3 PUSH2 0x3AB JUMP JUMPDEST SWAP2 POP PUSH2 0x537 DUP4 PUSH2 0x3AB JUMP JUMPDEST SWAP3 POP DUP3 DUP3 SUB SWAP1 POP DUP2 DUP2 GT ISZERO PUSH2 0x54F JUMPI PUSH2 0x54E PUSH2 0x4F5 JUMP JUMPDEST JUMPDEST SWAP3 SWAP2 POP POP JUMP JUMPDEST PUSH32 0x4E487B7100000000000000000000000000000000000000000000000000000000 PUSH0 MSTORE PUSH1 0x12 PUSH1 0x4 MSTORE PUSH1 0x24 PUSH0 REVERT JUMPDEST PUSH0 PUSH2 0x58C DUP3 PUSH2 0x3AB JUMP JUMPDEST SWAP2 POP PUSH2 0x597 DUP4 PUSH2 0x3AB JUMP JUMPDEST SWAP3 POP DUP3 PUSH2 0x5A7 JUMPI PUSH2 0x5A6 PUSH2 0x555 JUMP JUMPDEST JUMPDEST DUP3 DUP3 DIV SWAP1 POP SWAP3 SWAP2 POP POP JUMP JUMPDEST PUSH0 PUSH2 0x5BC DUP3 PUSH2 0x3AB JUMP JUMPDEST SWAP2 POP PUSH2 0x5C7 DUP4 PUSH2 0x3AB JUMP JUMPDEST SWAP3 POP DUP3 DUP3 ADD SWAP1 POP DUP1 DUP3 GT ISZERO PUSH2 0x5DF JUMPI PUSH2 0x5DE PUSH2 0x4F5 JUMP JUMPDEST JUMPDEST SWAP3 SWAP2 POP POP JUMP JUMPDEST PUSH32 0x4E487B7100000000000000000000000000000000000000000000000000000000 PUSH0 MSTORE PUSH1 0x32 PUSH1 0x4 MSTORE PUSH1 0x24 PUSH0 REVERT INVALID LOG2 PUSH5 0x6970667358 0x22 SLT KECCAK256 0x25 0xAD RETF PUSH4 0xEC059EE5 RETURN INVALID 0x2D INVALID 0xC4 PUSH1 0x6F SIGNEXTEND SIGNEXTEND 0xE8 BLOBHASH CALLVALUE 0x2B RETURNCONTRACT 0xBB SWAP1 JUMPF 0x1436 PUSH7 0x81068D8D64736F PUSH13 0x634300081E0033000000000000 "
				},
				"gasEstimates": {
					"creation": {
						"codeDepositCost": "321600",
						"executionCost": "360",
						"totalCost": "321960"
					},
					"external": {
						"binarySearch(uint256[],uint256)": "infinite",
						"binarySearcht(uint256[],uint256)": "infinite"
					}
				},
				"methodIdentifiers": {
					"binarySearch(uint256[],uint256)": "b12601da",
					"binarySearcht(uint256[],uint256)": "dd0e4a1e"
				}
			},
			"storageLayout": {
				"storage": [],
				"types": null
			},
			"userdoc": {
				"kind": "user",
				"methods": {},
				"version": 1
			}
		}
	}
}